:100000000C943E000C94A6060C94A6060C94A6062E
:100010000C94A6060C94A6060C94A6060C94A606B0
:100020000C94A6060C94A6060C94A6060C94A606A0
:100030000C94A6060C94A6060C94A6060C94A60690
:100040000C94A6060C94A6060C94A6060C94A60680
:100050000C94A6060C94A6060C94A6060C94A60670
:100060000C94A6060C94A6063501460157016801BA
:1000700079018A019B01AC01BD01CE0111241FBE93
:10008000CFEFD8E0DEBFCDBF0E94F0010C94630635
:04009000F894FFCF12
:100094006F927F928F929F92AF92BF92CF92DF9294
:1000A400EF92FF920F931F93CF93DF934B015C0169
:1000B400C42F122F0E94BD046B017C01CB010E944E
:1000C400A305D82FB60180E090E00E94AB039B010A
:1000D400AC01C501B4010E946E0620E030E048EC9A
:1000E40052E40E949F060E94BD044B015C01D33080
:1000F40081F463E0C6010E94E803682E62E0C60151
:100104000E94E803782E61E0C6010E94E803082FEC
:1001140040C0D230F9F4C13089F462E0C6010E94D3
:10012400E803682E61E0C6010E94E803782EC4014A
:10013400992762E00E94E803082F2BC062E0C60101
:100144000E94E803782E61E0C6010E94E803082FAC
:10015400612C1FC0D130E9F4C13049F47C2CCB01AF
:10016400992762E00E94E803082F612C12C0C23074
:1001740069F46C2C992462E0C4010E94E803782E8F
:1001840061E0C4010E94E803082F03C00C2D712C08
:10019400612C862D0E942B01C23021F461E082E0A3
:1001A4000E946C0560E081E00E946C0585E090E0AF
:1001B4000E942706C23021F460E082E00E946C05B0
:1001C40061E081E00E946C05872D0E942B01C13003
:1001D40021F461E082E00E946C0560E080E00E940E
:1001E4006C0585E090E00E942706C13021F460E0B0
:1001F40082E00E946C0561E080E00E946C05802F23
:100204000E942B01112321F061E082E00E946C0521
:1002140060E083E00E946C0585E090E00E94270680
:10022400112321F060E082E00E946C0561E083E02C
:100234000E946C05DF91CF911F910F91FF90EF9079
:10024400DF90CF90BF90AF909F908F907F906F90F2
:0202540008950B
:1002560090E08A30910508F0AFC0FC01EC5CFF4FDE
:100266000C94900660E087E00E946C0560E084E0F4
:100276000E946C0560E085E00E946C0560E086E007
:100286000E946C05089561E087E00E946C0560E0BD
:1002960084E00E946C0560E085E00E946C0560E0E9
:1002A60086E00E946C05089560E087E00E946C0578
:1002B60061E084E00E946C0560E085E00E946C05C8
:1002C60060E086E00E946C05089561E087E00E9488
:1002D6006C0561E084E00E946C0560E085E00E94A8
:1002E6006C0560E086E00E946C05089560E087E09A
:1002F6000E946C0560E084E00E946C0561E085E088
:100306000E946C0560E086E00E946C05089561E03D
:1003160087E00E946C0560E084E00E946C0561E065
:1003260085E00E946C0560E086E00E946C050895F9
:1003360060E087E00E946C0561E084E00E946C0545
:1003460061E085E00E946C0560E086E00E946C0535
:10035600089561E087E00E946C0561E084E00E94F8
:100366006C0561E085E00E946C0560E086E00E9415
:100376006C05089560E087E00E946C0560E084E00B
:100386000E946C0560E085E00E946C0561E086E0F5
:100396000E946C05089561E087E00E946C0560E0AC
:1003A60084E00E946C0560E085E00E946C0561E0D7
:1003B60086E00E946C05089561E087E00E946C0566
:1003C60061E084E00E946C0561E085E00E946C05B6
:0A03D60061E086E00E946C050895C6
:1003E0000E94BA050E940506C0E0D0E009C020E0E6
:1003F00042E062E578EB8EEF9FE30E944A0021968F
:10040000C436D105A4F300E0C0EADFE0C12CD12C52
:10041000760185E00E94F405882351F060E084E0D5
:100420000E944F050E9436066B017C0112E03CC021
:1004300084E00E94F405882351F061E084E00E948A
:100440004F050E9445066B017C0111E02DC083E041
:100450000E94F405882351F060E084E00E944F057B
:100460000E941F046B017C0110E01EC082E00E940C
:10047000F405882359F060E084E00E944F050E9453
:100480008D0410E0C12CD12C76010EC081E00E94B9
:10049000F405882349F060E084E00E944F050E9443
:1004A00056046B017C0110E0C03A8FE0D80759F484
:1004B0000E948905811104C001E0C0E0D0E003C0C2
:1004C00000E0C0E0D0E0202F412FC701B6010E941C
:0604D0004A0021969ECFB8
:1004D60010C00E947C0658F00E94750640F029F470
:1004E6005F3F29F00C948A0651110C9484060C94F3
:1004F600A3060E94100568F39923B1F3552391F3DF
:10050600951B550BBB27AA2762177307840738F07C
:100516009F5F5F4F220F331F441FAA1FA9F335D0D9
:100526000E2E3AF0E0E832D091505040E695001C8D
:10053600CAF72BD0FE2F29D0660F771F881FBB1F47
:10054600261737074807AB07B0E809F0BB0B802D25
:10055600BF01FF2793585F4F3AF09E3F510578F051
:100566000C948A060C9484065F3FE4F3983ED4F319
:10057600869577956795B795F7959F5FC9F7880F25
:10058600911D9695879597F90895E1E0660F771F77
:10059600881FBB1F621773078407BA0720F0621B08
:0E05A600730B840BBA0BEE1F88F7E0950895D7
:1005B4000FC00E94750638F00E947C0620F0952337
:1005C40011F00C948A060C94A30611240C9484064E
:1005D4000E94100570F3959FC1F3950F50E0551FCD
:1005E400629FF001729FBB27F00DB11D639FAA2784
:1005F400F00DB11DAA1F649F6627B00DA11D661FD3
:10060400829F2227B00DA11D621F739FB00DA11DF3
:10061400621F839FA00D611D221F749F3327A00DAD
:10062400611D231F849F600D211D822F762F6A2F49
:1006340011249F5750409AF0F1F088234AF0EE0FAE
:10064400FF1FBB1F661F771F881F91505040A9F7DB
:100654009E3F510580F00C948A060C9484065F3FFB
:10066400E4F3983ED4F3869577956795B795F79517
:10067400E7959F5FC1F7FE2B880F911D969587958F
:0406840097F9089545
:1006880011C00E94750638F00E947C0620F039F4EB
:100698009F3F19F426F40C94A3060EF4E095E7FBAB
:1006A8000C948A06E92F0E94100558F3BA176207BE
:1006B80073078407950720F079F4A6F50C94830650
:1006C8000EF4E0950B2EBA2FA02D0B01B901900165
:1006D8000C01CA01A0011124FF27591B99F0593FA9
:1006E80050F4503E68F11A16F040A22F232F342FF1
:1006F8004427585FF3CF469537952795A795F0403F
:100708005395C9F77EF41F16BA0B620B730B840B53
:10071800BAF09150A1F0FF0FBB1F661F771F881F0B
:10072800C2F70EC0BA0F621F731F841F48F4879563
:1007380077956795B795F7959E3F08F0B0CF939555
:0E074800880F08F09927EE0F97958795089572
:10075600E89409C097FB3EF4909580957095619555
:100766007F4F8F4F9F4F9923A9F0F92F96E9BB270B
:100776009395F695879577956795B795F111F8CF87
:10078600FAF4BB0F11F460FF1BC06F5F7F4F8F4FF2
:100796009F4F16C0882311F096E911C0772321F0E8
:1007A6009EE8872F762F05C0662371F096E8862F80
:1007B60070E060E02AF09A95660F771F881FDAF7D7
:0A07C600880F9695879597F908951E
:1007D000613059F0623061F0633069F0643071F07B
:1007E000653059F560E177E20BC061E070E008C068
:1007F0006AE070E005C064E670E002C068EE73E095
:100800000E94CE05462F372F262FADECBCEC0E9460
:1008100054069695879596958795969587959C010C
:10082000220F331F880F991F880F991F880F991F58
:0E083000820F931F481B842F08958AE00895BD
:10083E008F929F92AF92BF92CF92DF92EF92FF92E2
:10084E0081E00E94E205BC0180E090E00E94AB03D3
:10085E002AE939E94CE453E40E949B066B017C01C2
:10086E0020E030E047E754E40E949F064B015C0114
:10087E00A701960160E070E080EA90E40E946E06A7
:10088E009B01AC01C501B4010E949B06FF90EF9045
:0E089E00DF90CF90BF90AF909F908F90089505
:1008AC008F929F92AF92BF92CF92DF92EF92FF9274
:1008BC0082E00E94E205BC0180E090E00E94AB0364
:1008CC002AE939E94CE453E40E949B066B017C0154
:1008DC0022E538EB4EE151E40E949F064B015C018E
:1008EC00A701960160E070E080EA90E40E946E0639
:1008FC009B01AC01C501B4010E949B06FF90EF90D7
:0E090C00DF90CF90BF90AF909F908F90089596
:10091A00CF93DF9320C061E080E00E94320580E03F
:10092A0090E001C001968E3E22E09207D8F360E083
:10093A0080E00E94320580E090E001C001968E3E80
:10094A0022E09207D8F3219602C0C0E0D0E0C83E68
:10095A0083E0D80700F30E941F0420E030E040E261
:10096A0051E40E949606882384F3DF91CF9108957B
:10097A000E94180588F09F5798F0B92F9927B75108
:10098A00B0F0E1F0660F771F881F991F1AF0BA9529
:10099A00C9F714C0B13091F00E948306B1E00895FE
:1009AA000C948306672F782F8827B85F39F0B93FF0
:1009BA00CCF3869577956795B395D9F73EF49095DC
:0E09CA008095709561957F4F8F4F9F4F0895D8
:1009D800990F0008550FAA0BE0E8FEEF1616170648
:1009E800E807F907C0F012161306E407F50798F0B0
:1009F800621B730B840B950B39F40A2661F0232BC9
:100A0800242B252B21F408950A2609F4A140A69544
:080A18008FEF811D811D08957F
:100A200057FD9058440F551F59F05F3F71F047959F
:100A3000880F97FB991F61F09F3F79F08795089584
:100A4000121613061406551FF2CF4695F1DF08C0A3
:100A5000161617061806991FF1CF869571056105C0
:040A60000894089559
:100A6400662369F045B121E030E0B90102C0660FA8
:100A7400771F8A95E2F7CB01842B85B9089545B198
:100A840021E030E0B90102C0660F771F8A95E2F7D2
:0A0A9400CB018095842385B90895F5
:100A9E00662369F048B121E030E0B90102C0660F6B
:100AAE00771F8A95E2F7CB01842B88B9089548B158
:100ABE0021E030E0B90102C0660F771F8A95E2F798
:0A0ACE00CB018095842388B90895B8
:100AD800662369F04BB121E030E0B90102C0660F2E
:100AE800771F8A95E2F7CB01842B8BB908954BB118
:100AF80021E030E0B90102C0660F771F8A95E2F75E
:0A0B0800CB01809584238BB908957A
:100B120083E00E94E205BC0180E090E00E94AB030A
:100B220026E636E645E952E40E949B0620E030E0E4
:100B320040EC50E40E949606882314F480E0089565
:040B420081E00895B1
:100B46008A30910560F08436910558F0883E23E09E
:100B5600920748F08031974240F484E0089581E09E
:0E0B6600089582E0089583E0089585E00895E3
:100B740081E084B980E187B98FEF8AB980E48093FA
:100B84007C0087EC80937A0080917A0084FFFCCF0C
:080B940080E180937A000895CE
:100B9C00AA1BBB1B51E107C0AA1FBB1FA617B70797
:100BAC0010F0A61BB70B881F991F5A95A9F78095B3
:080BBC009095BC01CD010895E4
:100BC400806480937C0087EC80937A0080917A0023
:100BD40084FFFCCF80E180937A008091780090912B
:040BE40079000895F7
:100BE80093B121E030E002C0220F331F8A95E2F76B
:100BF800892F90E02823392381E0232B09F480E012
:020C080008954D
:100C0A0061E081E00E946C0561E080E00E946C0571
:100C1A0061E083E00E946C0560E082E00E946C055E
:020C2A0008952B
:100C2C00092E0394000C11F4882352F0BB0F40F4EE
:100C3C00BF2B11F460FF04C06F5F7F4F8F4F9F4F2E
:020C4C00089509
:100C4E0020E030E008C0EFE9FFE03197F1F700C097
:0E0C5E0000002F5F3F4F28173907A8F30895B5
:100C6C0083E00E94E205BC0180E090E00E94AB03AF
:0E0C7C002AE939E94CE453E40E949B060895EE
:100C8A0080E00E94E205BC0180E090E00E94AB0394
:0E0C9A0021EE3AE740ED51E40E949B060895DA
:100CA800A29FB001B39FC001A39F700D811D1124A5
:0E0CB800911DB29F700D811D1124911D089594
:100CC600EC010E94AB060E94AA06CE010E94AC0669
:060CD600CE010E94A806F9
:0E0CDC005058BB27AA270E9444030C9416060A
:0E0CEA0000240A941616170618060906089527
:0E0CF80000240A941216130614060506089529
:0E0D0600E894BB2766277727CB0197F908955D
:0C0D140097F99F6780E870E060E00895A8
:0C0D2000EE0FFF1F0590F491E02D0994E8
:0A0D2C000E94EC0408F481E0089531
:080D36000E946B020C941606EA
:080D3E000E94DA020C94160673
:060D46009FEF80EC089510
:040D4C000C94000003
:040D50000E944800B5
:020D5400089500
:020D56000895FE
:020D58000895FC
:00000001FF
